{
  "contractName": "GachaDapp",
  "abi": [
    {
      "anonymous": false,
      "inputs": [
        {
          "indexed": false,
          "internalType": "string[]",
          "name": "_Items",
          "type": "string[]"
        },
        {
          "indexed": false,
          "internalType": "uint256",
          "name": "_totalCount",
          "type": "uint256"
        }
      ],
      "name": "MyItemList",
      "type": "event"
    },
    {
      "inputs": [
        {
          "internalType": "address",
          "name": "",
          "type": "address"
        }
      ],
      "name": "userInfo",
      "outputs": [
        {
          "internalType": "uint256",
          "name": "gachaCount",
          "type": "uint256"
        },
        {
          "internalType": "uint256",
          "name": "totalCount",
          "type": "uint256"
        }
      ],
      "stateMutability": "view",
      "type": "function",
      "constant": true
    },
    {
      "inputs": [],
      "name": "test",
      "outputs": [],
      "stateMutability": "payable",
      "type": "function",
      "payable": true
    },
    {
      "inputs": [],
      "name": "callresult",
      "outputs": [],
      "stateMutability": "nonpayable",
      "type": "function"
    }
  ],
  "bytecode": "0x60806040526040518061014001604052806040518060400160405280600581526020017f4974656d3100000000000000000000000000000000000000000000000000000081525081526020016040518060400160405280600581526020017f4974656d3200000000000000000000000000000000000000000000000000000081525081526020016040518060400160405280600581526020017f4974656d3300000000000000000000000000000000000000000000000000000081525081526020016040518060400160405280600581526020017f4974656d3400000000000000000000000000000000000000000000000000000081525081526020016040518060400160405280600581526020017f4974656d3500000000000000000000000000000000000000000000000000000081525081526020016040518060400160405280600581526020017f4974656d3600000000000000000000000000000000000000000000000000000081525081526020016040518060400160405280600581526020017f4974656d3700000000000000000000000000000000000000000000000000000081525081526020016040518060400160405280600581526020017f4974656d3800000000000000000000000000000000000000000000000000000081525081526020016040518060400160405280600581526020017f4974656d3900000000000000000000000000000000000000000000000000000081525081526020016040518060400160405280600681526020017f4974656d31300000000000000000000000000000000000000000000000000000815250815250600090600a6200026e92919062000283565b503480156200027c57600080fd5b506200046d565b828054828255906000526020600020908101928215620002d7579160200282015b82811115620002d6578251829080519060200190620002c5929190620002ea565b5091602001919060010190620002a4565b5b509050620002e691906200037b565b5090565b828054620002f89062000437565b90600052602060002090601f0160209004810192826200031c576000855562000368565b82601f106200033757805160ff191683800117855562000368565b8280016001018555821562000368579182015b82811115620003675782518255916020019190600101906200034a565b5b509050620003779190620003a3565b5090565b5b808211156200039f5760008181620003959190620003c2565b506001016200037c565b5090565b5b80821115620003be576000816000905550600101620003a4565b5090565b508054620003d09062000437565b6000825580601f10620003e4575062000405565b601f016020900490600052602060002090810190620004049190620003a3565b5b50565b7f4e487b7100000000000000000000000000000000000000000000000000000000600052602260045260246000fd5b600060028204905060018216806200045057607f821691505b6020821081141562000467576200046662000408565b5b50919050565b6108f2806200047d6000396000f3fe6080604052600436106100345760003560e01c80631959a0021461003957806394d1283a14610077578063f8a8fd6d1461008e575b600080fd5b34801561004557600080fd5b50610060600480360381019061005b91906104c5565b610098565b60405161006e92919061050b565b60405180910390f35b34801561008357600080fd5b5061008c6100bc565b005b61009661023b565b005b60016020528060005260406000206000915090508060010154908060020154905082565b6000600160003373ffffffffffffffffffffffffffffffffffffffff1673ffffffffffffffffffffffffffffffffffffffff16815260200190815260200160002060405180606001604052908160008201805480602002602001604051908101604052809291908181526020016000905b828210156101d957838290600052602060002001805461014c90610563565b80601f016020809104026020016040519081016040528092919081815260200182805461017890610563565b80156101c55780601f1061019a576101008083540402835291602001916101c5565b820191906000526020600020905b8154815290600101906020018083116101a857829003601f168201915b50505050508152602001906001019061012d565b5050505081526020016001820154815260200160028201548152505090507f562db7bde13cf8b3afbee05b4d01e8851bb0535b1c7cef3b0300435f671656ed816000015182604001516040516102309291906106f0565b60405180910390a150565b6000600160003373ffffffffffffffffffffffffffffffffffffffff1673ffffffffffffffffffffffffffffffffffffffff168152602001908152602001600020905060006005826001015414156102aa576000905061029b81836102de565b600082600101819055506102da565b670de0b6b3a764000090506102bf81836102de565b8160010160008154809291906102d49061074f565b91905055505b5050565b8134141561036b578060000160006102f4610374565b8154811061030557610304610798565b5b906000526020600020019080600181540180825580915050600190039060005260206000200160009091909190915090805461034090610563565b61034b9291906103b8565b508060020160008154809291906103619061074f565b9190505550610370565b600080fd5b5050565b600080600a334260405160200161038c929190610830565b6040516020818303038152906040528051906020012060001c6103af919061088b565b90508091505090565b8280546103c490610563565b90600052602060002090601f0160209004810192826103e65760008555610434565b82601f106103f75780548555610434565b8280016001018555821561043457600052602060002091601f016020900482015b82811115610433578254825591600101919060010190610418565b5b5090506104419190610445565b5090565b5b8082111561045e576000816000905550600101610446565b5090565b600080fd5b600073ffffffffffffffffffffffffffffffffffffffff82169050919050565b600061049282610467565b9050919050565b6104a281610487565b81146104ad57600080fd5b50565b6000813590506104bf81610499565b92915050565b6000602082840312156104db576104da610462565b5b60006104e9848285016104b0565b91505092915050565b6000819050919050565b610505816104f2565b82525050565b600060408201905061052060008301856104fc565b61052d60208301846104fc565b9392505050565b7f4e487b7100000000000000000000000000000000000000000000000000000000600052602260045260246000fd5b6000600282049050600182168061057b57607f821691505b6020821081141561058f5761058e610534565b5b50919050565b600081519050919050565b600082825260208201905092915050565b6000819050602082019050919050565b600081519050919050565b600082825260208201905092915050565b60005b838110156105fb5780820151818401526020810190506105e0565b8381111561060a576000848401525b50505050565b6000601f19601f8301169050919050565b600061062c826105c1565b61063681856105cc565b93506106468185602086016105dd565b61064f81610610565b840191505092915050565b60006106668383610621565b905092915050565b6000602082019050919050565b600061068682610595565b61069081856105a0565b9350836020820285016106a2856105b1565b8060005b858110156106de57848403895281516106bf858261065a565b94506106ca8361066e565b925060208a019950506001810190506106a6565b50829750879550505050505092915050565b6000604082019050818103600083015261070a818561067b565b905061071960208301846104fc565b9392505050565b7f4e487b7100000000000000000000000000000000000000000000000000000000600052601160045260246000fd5b600061075a826104f2565b91507fffffffffffffffffffffffffffffffffffffffffffffffffffffffffffffffff82141561078d5761078c610720565b5b600182019050919050565b7f4e487b7100000000000000000000000000000000000000000000000000000000600052603260045260246000fd5b60008160601b9050919050565b60006107df826107c7565b9050919050565b60006107f1826107d4565b9050919050565b61080961080482610487565b6107e6565b82525050565b6000819050919050565b61082a610825826104f2565b61080f565b82525050565b600061083c82856107f8565b60148201915061084c8284610819565b6020820191508190509392505050565b7f4e487b7100000000000000000000000000000000000000000000000000000000600052601260045260246000fd5b6000610896826104f2565b91506108a1836104f2565b9250826108b1576108b061085c565b5b82820690509291505056fea2646970667358221220b0ec5a064d0cb31049ccf0d765ad50a42a556a04ed28c8ae86372285bc86f6ae64736f6c634300080b0033",
  "immutableReferences": {},
  "source": "// SPDX-License-Identifier: MIT\r\npragma solidity ^0.8.11;\r\n\r\ncontract GachaDapp{\r\n    \r\n    event MyItemList(string[] _Items, uint _totalCount);\r\n\r\nstring[] private ItemList = [\"Item1\",\"Item2\",\"Item3\",\"Item4\",\"Item5\",\"Item6\",\"Item7\",\"Item8\",\"Item9\",\"Item10\"];\r\n\r\nstruct info{\r\n    string[] Items;\r\n    uint gachaCount;\r\n    uint totalCount;\r\n}\r\n\r\nmapping(address => info) public userInfo;\r\n\r\nfunction randFunc() internal view returns(uint){\r\nuint randomnumber = uint(keccak256(abi.encodePacked(msg.sender,block.timestamp))) % 10;\r\nreturn randomnumber;\r\n}\r\n\r\nfunction payFunc (uint _funcFee, info storage _Myinfo) internal {\r\nif(msg.value ==_funcFee){\r\n   _Myinfo.Items.push(ItemList[randFunc()]);\r\n   _Myinfo.totalCount++;\r\n    } else {\r\n        revert();\r\n    }\r\n }\r\n\r\nfunction test() public payable {\r\ninfo storage Myinfo = userInfo[msg.sender];\r\nuint funcFee;\r\nif(Myinfo.gachaCount == 5){\r\n    funcFee=0;\r\n    payFunc(funcFee,Myinfo);\r\nMyinfo.gachaCount =0;\r\n   } else {\r\n    funcFee=1000000000000000000;\r\n    payFunc(funcFee,Myinfo);\r\n        Myinfo.gachaCount++;\r\n}\r\n\r\n}\r\n\r\nfunction callresult() public {\r\n info memory result = userInfo[msg.sender];\r\n    emit MyItemList(result.Items,result.totalCount);\r\n}\r\n\r\n}",
  "sourcePath": "C:\\Users\\HSBUBU\\Documents\\GitHub\\testfield\\contracts\\GachaDapp.sol",
  "compiler": {
    "name": "solc",
    "version": "0.8.11+commit.d7f03943.Emscripten.clang"
  },
  "schemaVersion": "3.4.5",
  "updatedAt": "2022-03-04T02:02:30.233Z",
  "networkType": "ethereum",
  "devdoc": {
    "kind": "dev",
    "methods": {},
    "version": 1
  },
  "userdoc": {
    "kind": "user",
    "methods": {},
    "version": 1
  }
}